:020000040000fa
:08000000002b040000000000c9
:020000040000fa
:1000080002280000062800000a2800000e28000028
:1000180012280000162800001a2800001e280000d8
:1000280022280000262800002a2800002e28000088
:1000380032280000362800003a2800003e28000038
:1000480042280000462800004a2800004e280000e8
:1000580052280000562800005a2800005e28000098
:1000680062280000662800006a2800006e28000048
:1000780072280000762800007a2800007e280000f8
:1000880082280000862800008a2800008e280000a8
:1000980092280000962800009a2800009e28000058
:1000a800a2280000a6280000aa280000ae28000008
:1000b800b2280000b6280000ba280000be280000b8
:1000c800c2280000c6280000ca280000ce28000068
:1000d800d2280000d6280000da280000de28000018
:1000e800e2280000e6280000ea280000ee280000c8
:1000f800f2280000f6280000fa280000fe28000078
:1001080002290000062900000a2900000e29000023
:1001180012290000162900001a2900001e290000d3
:1001280022290000262900002a2900002e29000083
:1001380032290000362900003a2900003e29000033
:1001480042290000462900004a2900004e290000e3
:1001580052290000562900005a2900005e29000093
:1001680062290000662900006a2900006e29000043
:1001780072290000762900007a2900007e290000f3
:1001880082290000862900008a2900008e290000a3
:1001980092290000962900009a2900009e29000053
:1001a800a2290000a6290000aa290000ae29000003
:1001b800b2290000b6290000ba290000be290000b3
:1001c800c2290000c6290000ca290000ce29000063
:1001d800d2290000d6290000da290000de29000013
:1001e800e2290000e6290000ea290000ee290000c3
:1001f800f2290000f6290000fa290000fe29000073
:1002080002300000063000000a3000000e30000006
:1002180012300000163000001a3000001e300000b6
:1002280022300000263000002a3000000e030000b3
:1002380032300000363000003a3000003e30000016
:1002480042300000463000004a3000004e300000c6
:1002580052300000563000005a3000005e30000076
:1002680062300000663000006a3000006e30000026
:0c02780072300000763000007a30000088
:020000040000fa
:1050000002000000fa2b040000000000fa2b04004c
:1050100000000000fa2b040000000000fa2b04003e
:1050200000000000fa2b040000000000fa2b04002e
:1050300000000000fa2b040000000000fa2b04001e
:1050400000000000fa2b040000000000fa2b04000e
:1050500000000000fa2b040000000000fa2b0400fe
:1050600000000000fa2b040000000000fa2b0400ee
:1050700000000000fa2b040000000000fa2b0400de
:1050800000000000fa2b040000000000fa2b0400ce
:1050900000000000fa2b040000000000fa2b0400be
:1050a00000000000fa2b040000000000fa2b0400ae
:1050b00000000000fa2b040000000000fa2b04009e
:1050c00000000000fa2b040000000000fa2b04008e
:1050d00000000000fa2b040000000000fa2b04007e
:1050e00000000000fa2b040000000000fa2b04006e
:1050f00000000000fa2b040000000000fa2b04005e
:1051000000000000fa2b040000000000fa2b04004d
:1051100000000000fa2b040000000000fa2b04003d
:1051200000000000fa2b040000000000fa2b04002d
:1051300000000000fa2b040000000000fa2b04001d
:1051400000000000fa2b040000000000fa2b04000d
:1051500000000000fa2b040000000000fa2b0400fd
:1051600000000000fa2b040000000000fa2b0400ed
:1051700000000000fa2b040000000000fa2b0400dd
:1051800000000000fa2b040000000000fa2b0400cd
:1051900000000000fa2b040000000000fa2b0400bd
:1051a00000000000fa2b040000000000fa2b0400ad
:1051b00000000000fa2b040000000000fa2b04009d
:1051c00000000000fa2b040000000000fa2b04008d
:1051d00000000000fa2b040000000000fa2b04007d
:1051e00000000000fa2b040000000000fa2b04006d
:1051f00000000000fa2b040000000000fa2b04005d
:1052000000000000fa2b040000000000fa2b04004c
:1052100000000000fa2b040000000000fa2b04003c
:1052200000000000fa2b040000000000fa2b04002c
:1052300000000000fa2b040000000000fa2b04001c
:1052400000000000fa2b040000000000fa2b04000c
:1052500000000000fa2b040000000000fa2b0400fc
:1052600000000000fa2b040000000000fa2b0400ec
:1052700000000000fa2b040000000000fa2b0400dc
:1052800000000000fa2b040000000000fa2b0400cc
:1052900000000000fa2b040000000000fa2b0400bc
:1052a00000000000fa2b040000000000fa2b0400ac
:1052b00000000000fa2b040000000000fa2b04009c
:1052c00000000000fa2b040000000000fa2b04008c
:1052d00000000000fa2b040000000000fa2b04007c
:1052e00000000000fa2b040000000000fa2b04006c
:1052f00000000000fa2b040000000000fa2b04005c
:1053000000000000fa2b040000000000fa2b04004b
:1053100000000000fa2b040000000000fa2b04003b
:1053200000000000fa2b040000000000fa2b04002b
:1053300000000000fa2b040000000000fa2b04001b
:1053400000000000fa2b040000000000fa2b04000b
:1053500000000000fa2b040000000000fa2b0400fb
:1053600000000000fa2b040000000000fa2b0400eb
:1053700000000000fa2b040000000000fa2b0400db
:1053800000000000fa2b040000000000fa2b0400cb
:1053900000000000fa2b040000000000fa2b0400bb
:1053a00000000000fa2b040000000000fa2b0400ab
:1053b00000000000fa2b040000000000fa2b04009b
:1053c00000000000fa2b040000000000fa2b04008b
:1053d00000000000fa2b040000000000fa2b04007b
:1053e00000000000fa2b040000000000fa2b04006b
:1053f00000000000fa2b040000000000fa2b04005b
:1054000000000000fa2b040000000000fa2b04004a
:1054100000000000fa2b040000000000fa2b04003a
:1054200000000000fa2b040000000000fa2b04002a
:1054300000000000fa2b040000000000fa2b04001a
:1054400000000000fa2b040000000000fa2b04000a
:1054500000000000fa2b040000000000fa2b0400fa
:1054600000000000fa2b040000000000fa2b0400ea
:1054700000000000fa2b040000000000fa2b0400da
:1054800000000000fa2b040000000000fa2b0400ca
:1054900000000000fa2b040000000000fa2b0400ba
:1054a00000000000fa2b040000000000fa2b0400aa
:1054b00000000000fa2b040000000000fa2b04009a
:1054c00000000000fa2b040000000000fa2b04008a
:1054d00000000000fa2b040000000000fa2b04007a
:1054e00000000000fa2b040000000000fa2b04006a
:0c54f00000000000fa2b04000000000087
:020000040000fa
:105600004f1121000eff24000e0188000000000051
:10561000000020000000e000020032000001200035
:105620002002880014000700740007000000e0005a
:1056300003003a00005d2300010020000200370053
:105640000000200001002000810f700001003200e6
:105650000f000700000020000000e0000200320000
:105660000000020000000000703302000000000093
:105670000040da000000fe00c01820000000e0003a
:105680000200320000202000900188000000060087
:10569000a1028800800478000000eb001f003700a2
:1056a000e284440054a0b4009905ba00e2844400a6
:1056b00054a0b4009906ba00e284440054a0b40097
:1056c0000006eb00476fde00fd07b200ae01880068
:1056d000636ce10003003a000ad801000000eb000f
:1056e0000e003700606ce10008003a00004deb004e
:1056f0000a05e800020039003420ec000af0a0009e
:105700008b05e900f9ff3e00040037006168e10005
:10571000010032000086eb000b00070019c7ba0039
:105720000e04e0001905ba0003003a000a00e00088
:10573000dbff3a0000000600fe07b200ae02880060
:105740008a047800f5ff37000cd0a300e20f4d006b
:105750001c003b0089027800354dba000a05e800bc
:10576000020039003420ec000af0a0008b05e900ab
:105770000f003200254dba000a05e800020039008a
:105780003420ec000af0a0008b05e900080032008c
:105790000c00e0000600320015cdba000a05e80052
:1057a000020039003420ec000af0a0008b05e9006b
:1057b0008984e80054a0b4000b00e000e2ff3a0046
:1057c000000006009902ba00055d78008b05e9002b
:1057d000f7ff3200c82ade00055d78008b05e9007e
:1057e000f3ff32000c00e000f1ff320019ddba00d7
:1057f000eeff37000040da000000fe000000050068
:105800000000e9008000eb00808888009188880013
:1058100000000600d2f2270053c9240080888000cf
:10582000918880000700070061014000e081480086
:1058300082888800938888004118de0001002000db
:1058400000000600020ab900001bb9000200b800ff
:0c585000810042008100430000000600bf
:020000040000fa
:10585c003e510000494500003e000000427f000020
:10586c004000000042610000514900004621000048
:10587c00414500004b31000018140000127f00005d
:10588c001027000045450000453900003c4a000047
:10589c0049490000300100007109000005030000b7
:1058ac00364900004949000036060000494900000d
:1058bc00291e0000060f00001e0f0000060000004d
:1058cc003c7e00007e7e00007e3c0000003c000020
:1058dc00424200004a3a0000003f000048480000e5
:1058ec00483f0000007f0000020c0000027f000017
:1058fc00007f000049490000494100000000000001
:10590c0000000000000000003e410000414100008a
:10591c003e0000001f200000402000001f0000007f
:10592c007f49000049490000410000007f09000048
:10593c0019290000463f000048480000483f00007d
:10594c007f49000049490000363e000041410000fb
:10595c00412200007f410000414100003e7f0000d9
:10596c0049490000494100007f48000048480000b8
:10597c00403e000041490000493a00007f08000009
:10598c00080800007f000000417f0000410000007b
:10599c0020400000413f0000017f0000081400007f
:1059ac00224100007f01000001010000017f000086
:1059bc0020100000207f00007f1000000804000071
:1059cc007f3e000041410000413e00007f48000046
:1059dc0048480000303e000041450000423d0000b8
:1059ec007f4800004c4a0000313200004949000059
:1059fc0049260000404000007f400000407e00002f
:105a0c0001010000017e00007c0200000102000088
:105a1c007c7e000001060000017e00006314000083
:105a2c000814000063600000100f000010600000fc
:105a3c00434500004951000061450000454d000000
:105a4c003339000032200000505200004f4a000051
:105a5c004553000049000000535500004c45000020
:105a6c00594d0000414e0000205a00004f520000da
:105a7c004c550000004e000045430000415400000e
:105a8c004920000059450000534900004c420000d9
:105a9c004153000000490000425200004148000000
:105aac00494d00002059000045530000494c0000ae
:105abc004b41000059410000004500004d490000d9
:105acc004e2000004b550000524100004b000000de
:105adc005a4f0000524c0000554b00002053000060
:105aec0045430000494e0000495a0000003e0000aa
:105afc00203100002d4b00004f4c0000415900009c
:105b0c0000200000203100002d4b00004f4c000005
:105b1c0041590000003e0000203200002d4f0000d3
:105b2c0052540000412000000020000020320000f0
:105b3c002d4f00005254000041200000003e000098
:105b4c00203300002d5a00004f520000202000008e
:105b5c0000200000203300002d5a00004f5200009e
:085b6c002020000000000000f1
:020000040000fa
:105b74000000fa0060092000a010880017e2a800c5
:105b840000f8240021012000150407000080fa0019
:105b9400000006000000fa001602a8000000000041
:105ba400b0108000610060000000e000fcff3a00db
:105bb4000080fa00000006000000fa001642a80067
:105bc40000000000b0108000640060000000e000ed
:105bd400fcff3a000080fa00000006000200fa0010
:105be400004f78001e80fb00901088000000000029
:105bf400c110800000002400008060000000e0006c
:105c0400fbff3a000080fa00000006000200fa00e0
:105c1400004f7800dfff070080c7b300efff0700e5
:105c24000040eb00edff07001e407800ebff07008b
:105c3400e1ff07000080fa00000006000000fa00ff
:105c440000b02100710b2000e5030700e0cab30097
:105c5400eeff0700d0c8b300ecff070040c1b3005b
:105c6400eaff070000c2b300e8ff07000040eb00b2
:105c7400e6ff070010cab300e4ff070080ccb300be
:105c8400e2ff0700f0cab300e0ff070000d82800d5
:105c9400b1052000d20307000080fa0000000600ce
:105ca4000200fa0010c2b300d8ff07000040eb0066
:105cb400d6ff0700f0c7b300d4ff070020c2b3002b
:105cc400d2ff07000040eb00d0ff070070c0b30014
:105cd400ceff0700afff070080c7b300bfff070078
:105ce40000c4b300bdff07000000eb00000f780004
:105cf400030037000040eb00b8ff07001e0fe80068
:105d0400f03f20009e007800808f5000f9ff36009d
:105d1400a9ff07000080fa00000006000000fa0056
:105d24001e0ea900100ea80000002800001988000b
:105d34002823ef0020002000201988002223ef00f0
:105d44000080fa00000006000200fa00004f78000c
:105d54009e4078007fc060000080fb007f006000f0
:105d64004219800001fe2f008100610001007000d3
:105d7400401988002023a80080252000010020006d
:105d8400970307002023a9000000000000198000e9
:105d9400610060000000e000fcff32000018800099
:105da4000080fa00000006000600fa002047980070
:105db4003147980022079800ae40900000cbb30012
:105dc40000c0400091ff07003e4090006f4060001b
:105dd4008eff07003e4090000080fb004400de0080
:105de400004078007040400088ff070069ff07000a
:105df40080c7b30079ff070000c4b30077ff070032
:105e0400660037002e0090009040780000c4b30074
:105e140080cf5000170034002e009000904078008e
:105e2400a0c5b30080cf500012003c000000eb007e
:105e3400000f78000b0037002e009000104078000f
:105e44000000fb001004b100e500b9001e00400092
:105e540011ca2a0000804000104078005fff07004c
:105e64001e0fe8001e007800e40f5000f2ff34001b
:105e7400450037002e00900090407800f0c2b30037
:105e840080cf5000170034002e009000904078001e
:105e940090c3b30080cf500012003c000000eb0020
:105ea400000f78000b0037002e009000104078009f
:105eb4000000fb000003b100e500b9001e00400033
:105ec400e1c22a00008040001040780043ff070030
:105ed4001e0fe8001e007800e40f5000f2ff3400ab
:105ee400290037002e00900090407800e0c3b300f2
:105ef40080cf50000b003a000040eb0037ff070052
:105f040010c4b30035ff070020c2b30033ff0700fd
:105f140040c1b30031ff070080c0b3002fff07006a
:105f2400190037002e00900090407800d0c2b300d2
:105f340080cf50000b003a0080c0b30027ff070059
:105f440080c0b30025ff070080c0b30023ff070013
:105f54000040eb0021ff07000040eb001fff07009b
:105f6400090037000000eb00000f78000300370041
:105f74000040eb0019ff07001e0fe8001e00780028
:105f8400e40f5000faff34000040eb0013ff070059
:105f94002e0090000000e800200798002e009000da
:105fa400104078000004e00096ff3a0002ff07006a
:105fb4000080fa00000006000200fa0038ff070023
:105fc40032d22a0041c1b3000040eb0076ff070043
:105fd40022d32a008040eb0020c0b30072ff0700e8
:105fe40012d42a008040eb0030c0b3006eff0700db
:105ff40012d52a008040eb0040c0b3006aff0700be
:1060040032d62a008040eb0050c0b30066ff070080
:106014000000eb00000f78000400370000a62e00fb
:1060240001002000ee0207001e0fe80070bb2000f4
:106034009e007800808f5000f8ff36000080fa0040
:10604400000006000600fa0010002000000f78008f
:1060540013ff07000040eb003bff07001007980008
:1060640010c0b30038ff070020079800ae0090006e
:1060740000322000808f5000090036001e0fe80017
:106084001e007800e20f50000200340020002000bf
:10609400000f780000b02100710b2000d00207002f
:1060a400ae009000700c2000808f500009003e006c
:1060b4001e0fe9001e0078000000e00002003d0011
:1060c4000000eb00000f780000b02100710b2000ed
:1060d400c3020700e2d62a00a1c0b3000040eb00cf
:1060e40031ff07001e0078000000e00005003a00c0
:1060f400d2d72a0041c1b30020c0b3002aff070051
:106104000400370072d82a0041c1b30020c0b30094
:1061140025ff07001e007800e10f500005003a003b
:1061240012d92a0041c1b30040c0b3001eff0700ca
:1061340004003700b2d92a0041c1b30040c0b30003
:1061440019ff07001e007800e20f500005003a0016
:1061540052da2a0041c1b30060c0b30012ff070045
:1061640004003700f2da2a0041c1b30060c0b30072
:106174000dff07009e00900000322000808f500029
:1061840009003600142ea80000d82800b10520000c
:1061940093020700142ea9001e0078000000e000fe
:1061a4000500320007003700006c2c00d1022000eb
:1061b4008b020700a7ff3700800c20003080880086
:1061c4000b0037001e007800e10f500003003a0076
:1061d4002008200030808800050037001e00780069
:1061e400e20f500002003a00600420003080880072
:1061f400abfe07000080fa00000006000a00fa0067
:10620400400798000000eb00100798000000eb0026
:10621400000f7800480037001e0090000000e000e6
:1062240040003a000040eb00c7fe0700200798003a
:1062340010c0b300c4fe070030079800ae00900001
:1062440000322000808f50000a00360060808000f9
:106254000000e0000700320060808000e10f500081
:10626400040032000a30ef001000200010079800ec
:106274002c003700ae009000700c2000808f50007e
:106284000b003e00608080000000e0000800320047
:1062940060808000e10f50000500320010002000f3
:1062a4005080880010002000100798001d0037005f
:1062b400be00900000322000808f50000b0036009a
:1062c40060808000e20f500008003200608080008f
:1062d400e30f5000050032002000200050808800a9
:1062e40010002000100798000e003700be00900038
:1062f400700c2000808f50000a003e0060808000f7
:10630400e20f50000700320060808000e30f50006d
:10631400040032003000200050808800100020006b
:1063240010079800007c2200910020002c02070036
:106334009e0078006a8f40004e0090009e00780016
:10634400808f5000b4ff39000080fa00000006007e
:106354000800fa0010079800210798006247980087
:106364002e0090008040780000cbb30000c04000b5
:1063740026fe07001e009000004078004300dd0068
:106384006f40600021fe07001e0090004300dd0006
:106394004480de00004078006f40600070404000a0
:1063a4001afe0700fbfd070080c7b3000bfe0700c1
:1063b40000c4b30009fe07000000eb00000f7800e2
:1063c400080037006e4090000004e0000200320034
:1063d40000c0eb00010037000040eb00fffd0700a8
:1063e4001e0fe8001e007800e70f5000f5ff340090
:1063f400f1fd07000080fa00000006000600fa0024
:1064040010079800210798002e0090008040780023
:1064140000cbb30000c04000fcfd07001e0090004c
:10642400004078004300dd006f406000f7fd070086
:106434001e0090004300dd004480de000040780030
:106444006f40600070404000f0fd0700d1fd070080
:1064540080c7b300e1fd070000c4b300dffd0700ff
:106464000000eb00000f78000500370050c62a003a
:106474001e00400010407800d8fd07001e0fe80001
:106484001e007800e70f5000f8ff3400cafd070033
:106494000080fa00000006000c00fa004007980093
:1064a400510798004e019000706626000090b900d4
:1064b400c288de004f90de00008050007166260026
:1064c4000181b9004299de00cf80de0081005100d5
:1064d400ea09b90082007800010050002007980002
:1064e400ce009000a00020000001780011000900f7
:1064f4008200d8008000fd003007980000cbb30074
:10650400c2fd07000040eb00c0fd070000c1b3005e
:10651400befd07009ffd070080c7b300affd070065
:1065240000c4b300adfd07000000eb00000f7800cd
:10653400080037002e009000e500b9001e0040005e
:10654400e1c22a000080400010407800a3fd07004b
:106554001e0fe8001e007800e40f5000f5ff340021
:106564000040eb009dfd07000000eb00000f7800e9
:10657400080037003e009000e500b9001e0040000e
:10658400e1c22a00008040001040780093fd07001b
:106594001e0fe8001e007800e40f5000f5ff3400e1
:1065a40085fd070000cbb30098fd070090c0b30041
:1065b40096fd070060c1b30094fd070075fd070058
:1065c40080c7b30085fd070000c4b30083fd070046
:1065d4000000eb00100798001e0037009e0090009a
:1065e4005e009000808f50000c003d000000eb0026
:1065f400000f78000500370000c62a001e00400086
:106604001040780075fd07001e0fe8001e0078009a
:10661400e40f5000f8ff3400090037000000eb00dd
:10662400000f7800030037000040eb006bfd07000b
:106634001e0fe8001e007800e40f5000faff34003b
:106644000040eb0065fd07001e0090000000e8001c
:10665400100798001e009000e20f5000dfff340086
:1066640055fd07000080fa00000006000200fa0051
:106674008bfd070030cbb30064fd070030c0b300ce
:1066840062fd070020c1b30060fd070041fd070063
:1066940080c7b30051fd070000c4b3004ffd0700dd
:1066a4000000eb00000f780005003700d0c62a0078
:1066b4001e0040001040780048fd07001e0fe8004f
:1066c400300320009e007800808f5000f7ff3400d4
:1066d40039fd07000080fa00000006000400fa00fb
:1066e400f0032000303a8800213a8000f0f32f00b4
:1066f40000806000203a8800213a800000fe2f00cc
:1067040000806000203a880000000000113a8000f8
:1067140000022000008060000000e000fbff320067
:106724001e2eef00102ea900142ea9007bfd0700d9
:106734000ffd070041fd07001ffe070041fe070093
:106744000000eb00000f78000e003700a2002000cc
:106754009e0051001e00780000014000000121004d
:1067640000004100010878001e007800800040000d
:106774000009210000804000410020000108780049
:106784001e0fe800008080009e007800808f50007b
:10679400eeff350041808000708080003eff0700de
:1067a4000000eb0010079800008080000000e90062
:1067b4008000400000092100008040009000780023
:1067c400008080000000e900000140000001210079
:1067d40000004100100078000041eb00dcfe0700df
:1067e40000808000000fe900150037001e00e9005a
:1067f40080004000000121000080400090007800eb
:106804001e0078000001400000012100000041004a
:10681400010878001e00e900800040000009210002
:1068240000804000900078001e00780000014000c5
:106834000009210000004100010878001e0fe90052
:106844001e0078000000e000e8ff3c00508080005b
:106854000000e00004003a00808080000000e800ae
:10686400808088001400370050808000e10f5000c1
:1068740004003a00808080000000e90080808800e5
:106884000d00370050808000e20f500004003a00f1
:10689400808480000000e9008084880006003700be
:1068a40050808000e30f500003003a008084800091
:1068b4000000e800808488005080800060808800a8
:1068c40080808000ef0f5000030034000000eb00d4
:1068d4008080880005003700808080000000e00090
:1068e40002003d00f0002000808088008084800049
:1068f400e70f50000300340010002000808488005b
:1069040005003700808480000000e00002003c00a5
:10691400700020008084880010002000000f7800a0
:1069240013003700818080001e00780000014000c1
:10693400000121000000410010007800808f500009
:106944000a003a00818480001e00780000014000a3
:10695400000921000000410010007800808f5000e1
:1069640002003a0010002000100798001e0fe800f3
:10697400008080009e007800808f5000e9ff350081
:106984001e009000e10f500048003a004080800053
:106994000000e90040808800418080007080800011
:1069a400bdfe0700142ea8000032200013fe0700cd
:1069b400142ea900408080000000e00008003c0084
:1069c4002aff070080bb20000cfe070030002000d7
:1069d400408088000e30ef009afd07000200370067
:1069e400803e200005fe0700500020000080880043
:1069f4000a30ef000c30ef000000eb00000f7800cd
:106a04000e003700a20020009e0051001e007800f6
:106a1400000140000001210000004100010878004d
:106a24001e00780080004000000921000080400022
:106a340041002000010878001e0fe800008080005b
:106a44009e007800808f5000eeff350070fb070039
:106a5400f1002800010060000000e00004003d0097
:106a64000000e90001ff2f00008070000000e80032
:106a74001080880066fb0700710020000101780087
:106a8400110009000200d8008000fd000000e800a9
:106a94002080880082fc0700418080007080800094
:106aa4007dfe0700000000003dff37008184800068
:106ab4008080800012c0b30025fe07002180800082
:106ac400108080004dfe07008180800010808000cf
:106ad400808f50002e003a00818480002080800046
:106ae400808f50002a003a00142ea800e0012000f4
:106af400c2fd0700142ea90001808000b00320000d
:106b0400808f500003003c00008080000000e800fb
:106b140000808800708080000000e8007080880099
:106b240041808000708080005bfe070038fb070016
:106b3400f1002800010060000000e00004003d00b6
:106b44000000e90001ff2f00008070000000e80051
:106b5400108088002efb07007100200001017800de
:106b6400110009000200d8008000fd000000e800c8
:106b7400208088003180800020032000808f500016
:106b840003003400308080006400500030808800ae
:0c6b94003080800099fd070001ff3700f1
:020000040000fa
:106ba0001010000000010000800000000010000034
:106bb0000a0000008200000005000c000004000034
:106bc00096000300000000000a100000060000000c
:106bd0008000000010110000040000008000000090
:046be00000000000b1
:020000040000fa
:106be400f03fb1000180b10006003500ee0309005a
:106bf40000000000403fb1000180b100fbff3d00f8
:106c04001000b000203fb0000200350000800900f1
:086c1400000000000000060072
:020000040000fa
:020000040002f8
:04afe000cfff00009f
:020000040000fa
:020000040002f8
:04afe8007fff0000e7
:020000040000fa
:020000040002f8
:04afec00ffff000063
:020000040000fa
:020000040002f8
:04aff000f9ff000065
:00000001FF
